{
  "contractName": "TokenFarm",
  "abi": [
    {
      "inputs": [
        {
          "internalType": "contract DappToken",
          "name": "_dapptoken",
          "type": "address"
        },
        {
          "internalType": "contract SpiritClashToken",
          "name": "_spiritclashtoken",
          "type": "address"
        }
      ],
      "payable": false,
      "stateMutability": "nonpayable",
      "type": "constructor"
    },
    {
      "constant": true,
      "inputs": [],
      "name": "dappToken",
      "outputs": [
        {
          "internalType": "contract DappToken",
          "name": "",
          "type": "address"
        }
      ],
      "payable": false,
      "stateMutability": "view",
      "type": "function"
    },
    {
      "constant": true,
      "inputs": [],
      "name": "name",
      "outputs": [
        {
          "internalType": "string",
          "name": "",
          "type": "string"
        }
      ],
      "payable": false,
      "stateMutability": "view",
      "type": "function"
    },
    {
      "constant": true,
      "inputs": [],
      "name": "owner",
      "outputs": [
        {
          "internalType": "address",
          "name": "",
          "type": "address"
        }
      ],
      "payable": false,
      "stateMutability": "view",
      "type": "function"
    },
    {
      "constant": true,
      "inputs": [],
      "name": "spiritclashtoken",
      "outputs": [
        {
          "internalType": "contract SpiritClashToken",
          "name": "",
          "type": "address"
        }
      ],
      "payable": false,
      "stateMutability": "view",
      "type": "function"
    },
    {
      "constant": true,
      "inputs": [
        {
          "internalType": "uint256",
          "name": "",
          "type": "uint256"
        }
      ],
      "name": "stakers",
      "outputs": [
        {
          "internalType": "address",
          "name": "",
          "type": "address"
        }
      ],
      "payable": false,
      "stateMutability": "view",
      "type": "function"
    },
    {
      "constant": true,
      "inputs": [
        {
          "internalType": "address",
          "name": "",
          "type": "address"
        }
      ],
      "name": "stakingBalance",
      "outputs": [
        {
          "internalType": "uint256",
          "name": "",
          "type": "uint256"
        }
      ],
      "payable": false,
      "stateMutability": "view",
      "type": "function"
    },
    {
      "constant": false,
      "inputs": [
        {
          "internalType": "uint256",
          "name": "_amount",
          "type": "uint256"
        }
      ],
      "name": "stakeTokens",
      "outputs": [],
      "payable": true,
      "stateMutability": "payable",
      "type": "function"
    },
    {
      "constant": false,
      "inputs": [],
      "name": "unstakeTokens",
      "outputs": [],
      "payable": false,
      "stateMutability": "nonpayable",
      "type": "function"
    },
    {
      "constant": false,
      "inputs": [],
      "name": "issueTokens",
      "outputs": [],
      "payable": false,
      "stateMutability": "nonpayable",
      "type": "function"
    }
  ],
  "bytecode": "0x60806040526040518060400160405280600f81526020017f4461707020546f6b656e204661726d00000000000000000000000000000000008152506001908051906020019061004f929190610163565b5034801561005c57600080fd5b50604051610f1f380380610f1f8339818101604052604081101561007f57600080fd5b81019080805190602001909291908051906020019092919050505081600260006101000a81548173ffffffffffffffffffffffffffffffffffffffff021916908373ffffffffffffffffffffffffffffffffffffffff16021790555080600360006101000a81548173ffffffffffffffffffffffffffffffffffffffff021916908373ffffffffffffffffffffffffffffffffffffffff160217905550336000806101000a81548173ffffffffffffffffffffffffffffffffffffffff021916908373ffffffffffffffffffffffffffffffffffffffff1602179055505050610208565b828054600181600116156101000203166002900490600052602060002090601f016020900481019282601f106101a457805160ff19168380011785556101d2565b828001600101855582156101d2579182015b828111156101d15782518255916020019190600101906101b6565b5b5090506101df91906101e3565b5090565b61020591905b808211156102015760008160009055506001016101e9565b5090565b90565b610d08806102176000396000f3fe6080604052600436106100865760003560e01c806360ab58521161005957806360ab58521461022e5780637547c7a3146102455780638da5cb5b14610273578063a5ce413b146102ca578063fd5e6dd1146102e157610086565b806306fdde031461008b57806345bc78ab1461011b5780634d415903146101805780635eb186f8146101d7575b600080fd5b34801561009757600080fd5b506100a061035c565b6040518080602001828103825283818151815260200191508051906020019080838360005b838110156100e05780820151818401526020810190506100c5565b50505050905090810190601f16801561010d5780820380516001836020036101000a031916815260200191505b509250505060405180910390f35b34801561012757600080fd5b5061016a6004803603602081101561013e57600080fd5b81019080803573ffffffffffffffffffffffffffffffffffffffff1690602001909291905050506103fa565b6040518082815260200191505060405180910390f35b34801561018c57600080fd5b50610195610412565b604051808273ffffffffffffffffffffffffffffffffffffffff1673ffffffffffffffffffffffffffffffffffffffff16815260200191505060405180910390f35b3480156101e357600080fd5b506101ec610438565b604051808273ffffffffffffffffffffffffffffffffffffffff1673ffffffffffffffffffffffffffffffffffffffff16815260200191505060405180910390f35b34801561023a57600080fd5b5061024361045e565b005b6102716004803603602081101561025b57600080fd5b81019080803590602001909291905050506106b4565b005b34801561027f57600080fd5b50610288610a33565b604051808273ffffffffffffffffffffffffffffffffffffffff1673ffffffffffffffffffffffffffffffffffffffff16815260200191505060405180910390f35b3480156102d657600080fd5b506102df610a58565b005b3480156102ed57600080fd5b5061031a6004803603602081101561030457600080fd5b8101908080359060200190929190505050610c97565b604051808273ffffffffffffffffffffffffffffffffffffffff1673ffffffffffffffffffffffffffffffffffffffff16815260200191505060405180910390f35b60018054600181600116156101000203166002900480601f0160208091040260200160405190810160405280929190818152602001828054600181600116156101000203166002900480156103f25780601f106103c7576101008083540402835291602001916103f2565b820191906000526020600020905b8154815290600101906020018083116103d557829003601f168201915b505050505081565b60056020528060005260406000206000915090505481565b600360009054906101000a900473ffffffffffffffffffffffffffffffffffffffff1681565b600260009054906101000a900473ffffffffffffffffffffffffffffffffffffffff1681565b6000809054906101000a900473ffffffffffffffffffffffffffffffffffffffff1673ffffffffffffffffffffffffffffffffffffffff163373ffffffffffffffffffffffffffffffffffffffff1614610520576040517f08c379a00000000000000000000000000000000000000000000000000000000081526004018080602001828103825260188152602001807f63616c6c6572206d75737420626520746865206f776e6572000000000000000081525060200191505060405180910390fd5b60008090505b6004805490508110156106b15760006004828154811061054257fe5b9060005260206000200160009054906101000a900473ffffffffffffffffffffffffffffffffffffffff1690506000600560008373ffffffffffffffffffffffffffffffffffffffff1673ffffffffffffffffffffffffffffffffffffffff16815260200190815260200160002054905060008111156106a257600260009054906101000a900473ffffffffffffffffffffffffffffffffffffffff1673ffffffffffffffffffffffffffffffffffffffff1663a9059cbb83836040518363ffffffff1660e01b8152600401808373ffffffffffffffffffffffffffffffffffffffff1673ffffffffffffffffffffffffffffffffffffffff16815260200182815260200192505050602060405180830381600087803b15801561066557600080fd5b505af1158015610679573d6000803e3d6000fd5b505050506040513d602081101561068f57600080fd5b8101908080519060200190929190505050505b50508080600101915050610526565b50565b6000811161072a576040517f08c379a00000000000000000000000000000000000000000000000000000000081526004018080602001828103825260128152602001807f616d6f756e742063616e6e6f742062652030000000000000000000000000000081525060200191505060405180910390fd5b600360009054906101000a900473ffffffffffffffffffffffffffffffffffffffff1673ffffffffffffffffffffffffffffffffffffffff166323b872dd3330846040518463ffffffff1660e01b8152600401808473ffffffffffffffffffffffffffffffffffffffff1673ffffffffffffffffffffffffffffffffffffffff1681526020018373ffffffffffffffffffffffffffffffffffffffff1673ffffffffffffffffffffffffffffffffffffffff1681526020018281526020019350505050602060405180830381600087803b15801561080757600080fd5b505af115801561081b573d6000803e3d6000fd5b505050506040513d602081101561083157600080fd5b81019080805190602001909291905050505080600560003373ffffffffffffffffffffffffffffffffffffffff1673ffffffffffffffffffffffffffffffffffffffff1681526020019081526020016000205401600560003373ffffffffffffffffffffffffffffffffffffffff1673ffffffffffffffffffffffffffffffffffffffff16815260200190815260200160002081905550600660003373ffffffffffffffffffffffffffffffffffffffff1673ffffffffffffffffffffffffffffffffffffffff16815260200190815260200160002060009054906101000a900460ff166109805760043390806001815401808255809150509060018203906000526020600020016000909192909190916101000a81548173ffffffffffffffffffffffffffffffffffffffff021916908373ffffffffffffffffffffffffffffffffffffffff160217905550505b6001600660003373ffffffffffffffffffffffffffffffffffffffff1673ffffffffffffffffffffffffffffffffffffffff16815260200190815260200160002060006101000a81548160ff0219169083151502179055506001600760003373ffffffffffffffffffffffffffffffffffffffff1673ffffffffffffffffffffffffffffffffffffffff16815260200190815260200160002060006101000a81548160ff02191690831515021790555050565b6000809054906101000a900473ffffffffffffffffffffffffffffffffffffffff1681565b6000600560003373ffffffffffffffffffffffffffffffffffffffff1673ffffffffffffffffffffffffffffffffffffffff16815260200190815260200160002054905060008111610b12576040517f08c379a000000000000000000000000000000000000000000000000000000000815260040180806020018281038252601b8152602001807f7374616b696e672062616c616e63652063616e6e6f742062652030000000000081525060200191505060405180910390fd5b600360009054906101000a900473ffffffffffffffffffffffffffffffffffffffff1673ffffffffffffffffffffffffffffffffffffffff1663a9059cbb33836040518363ffffffff1660e01b8152600401808373ffffffffffffffffffffffffffffffffffffffff1673ffffffffffffffffffffffffffffffffffffffff16815260200182815260200192505050602060405180830381600087803b158015610bbb57600080fd5b505af1158015610bcf573d6000803e3d6000fd5b505050506040513d6020811015610be557600080fd5b8101908080519060200190929190505050506000600560003373ffffffffffffffffffffffffffffffffffffffff1673ffffffffffffffffffffffffffffffffffffffff168152602001908152602001600020819055506000600760003373ffffffffffffffffffffffffffffffffffffffff1673ffffffffffffffffffffffffffffffffffffffff16815260200190815260200160002060006101000a81548160ff02191690831515021790555050565b60048181548110610ca457fe5b906000526020600020016000915054906101000a900473ffffffffffffffffffffffffffffffffffffffff168156fea265627a7a72315820344e969729b8d97cd9375ce0e276e8ecb15e279a2c72b0afa7185fb67f0ea52464736f6c63430005100032",
  "source": "pragma solidity >=0.5.0;\r\n\r\n\r\nimport \"./DappToken.sol\";\r\nimport \"./SpiritClashToken.sol\";\r\n\r\n/**\r\n * The TokenFarm contract does this and that...\r\n */\r\ncontract TokenFarm {\r\n \t// These get stored on the blockchain\r\n \t// Owner is the person who deployes the contract\r\n \taddress public owner;\r\n \tstring public name = \"Dapp Token Farm\";\r\n \tDappToken public dappToken;\r\n \tSpiritClashToken public spiritclashtoken;\r\n\r\n\t\r\n\t// people that have ever staked\t\r\n \taddress[] public stakers;\r\n \tmapping (address => uint) public stakingBalance;\r\n \t// Checks to see if the person has staked\r\n \tmapping (address => bool) hasStaked;\r\n \tmapping (address => bool) isStaking;\r\n\r\n\r\n\r\n\t// This is passing in addresses, I can find them manually\r\n  constructor(DappToken _dapptoken, SpiritClashToken _spiritclashtoken ) public {\r\n    dappToken = _dapptoken;\r\n    spiritclashtoken = _spiritclashtoken;\r\n    owner = msg.sender;\r\n  }\r\n\r\n // 1. Stakes Tokens(Deposit)\r\n function stakeTokens   (uint _amount) public payable {\r\n \t// Require amount greater than 0\r\n \trequire(_amount > 0, \"amount cannot be 0\");\r\n \t\r\n\r\n \t// Transfer Mock Dai tokens to this contract for staking\r\n \tspiritclashtoken.transferFrom(msg.sender, address(this), _amount);\r\n\r\n \t// Update staking balance\r\n \tstakingBalance[msg.sender] = stakingBalance[msg.sender] + _amount;\r\n\r\n \t\t// Add users to stakers array *only* if they havent staked already\r\n \tif(!hasStaked[msg.sender]) {\r\n \t\tstakers.push(msg.sender);\r\n \t}\r\n\r\n \t// Update staking status\r\n \thasStaked[msg.sender] = true;\r\n \tisStaking[msg.sender] = true;\r\n \t\r\n }\r\n \r\n //  Unstaking Tokens(Withdraw)\r\n\r\n \tfunction unstakeTokens ()  public {\r\n \t\t// Fetch staking balance\r\n \t\tuint balance = stakingBalance[msg.sender];\r\n \t\t// Require amount greater then 0\r\n\r\n \t\trequire (balance > 0, \"staking balance cannot be 0\");\r\n\r\n \t\t// Transfer Mock spirit clash tokens to this contract for staking\r\n \t\tspiritclashtoken.transfer(msg.sender, balance);\r\n\r\n \t\t// Reset staking balance\r\n \t\tstakingBalance[msg.sender] = 0;\r\n\r\n \t\t// Update staking status\r\n \t\tisStaking[msg.sender] = false;\r\n \t}\r\n \r\n\r\n //  Issuing Tokens\r\n\r\n \tfunction issueTokens()  public {\r\n \t\t// Only the owner can call this function\r\n \t\trequire (msg.sender == owner, \"caller must be the owner\");\r\n \t\t\r\n\r\n \t\t// Issue tokens to stakers\r\n \t\tfor(uint i=0; i <stakers.length; i++){\r\n \t\t\t// grab their address starting one by one\r\n \t\t\taddress recipient = stakers[i];\r\n \t\t\t// fetch their balance\r\n \t\t\tuint balance = stakingBalance[recipient];\r\n\r\n \t\t\t// make sure they have more then a zero balance\r\n \t\t\tif(balance > 0){\r\n \t\t\t\tdappToken.transfer(recipient, balance);\r\n \t\t\t}\r\n \t\t\t\r\n\r\n \t\t}\r\n \t\t\r\n \t}\r\n \t\r\n\r\n}\r\n\r\n\r\n",
  "sourcePath": "c:/Users/Cloudsan/Desktop/Eth Learn/defi_tutorial/src/contracts/TokenFarm.sol",
  "compiler": {
    "name": "solc",
    "version": "0.5.16+commit.9c3226ce.Emscripten.clang"
  },
  "schemaVersion": "3.2.3",
  "updatedAt": "2021-02-23T15:27:03.959Z",
  "devdoc": {
    "methods": {}
  },
  "userdoc": {
    "methods": {},
    "notice": "The TokenFarm contract does this and that..."
  }
}